:020000040800F2
:10000000F0060020490200085D1D0008D51900080F
:10001000391B0008FB1200081B2700080000000025
:10002000000000000000000000000000791F000830
:10003000FF120008000000002D1E0008912000089B
:1000400063020008630200086302000863020008FC
:1000500063020008630200086302000863020008EC
:1000600063020008630200086302000863020008DC
:1000700063020008630200086302000863020008CC
:1000800063020008630200086302000863020008BC
:1000900063020008630200086302000863020008AC
:1000A000630200086302000863020008630200089C
:1000B000D1220008F92200081D230008630200086D
:1000C000630200086302000863020008630200087C
:1000D0006302000815250008630200086302000897
:1000E000630200086302000863020008630200085C
:1000F000630200086302000863020008630200084C
:10010000630200086302000863020008630200083B
:10011000630200086302000863020008630200082B
:10012000630200086302000863020008630200081B
:10013000630200086302000863020008630200080B
:1001400063020008630200086302000863020008FB
:1001500063020008630200086302000863020008EB
:1001600063020008630200086302000863020008DB
:1001700063020008630200086302000863020008CB
:10018000630200086302000800F002F800F04CF877
:100190000AA090E8000C82448344AAF10107DA45E2
:1001A00001D100F041F8AFF2090EBAE80F0013F0E8
:1001B000010F18BFFB1A43F00103184794310000E8
:1001C000B4310000103A24BF78C878C1FAD8520779
:1001D00024BF30C830C144BF04680C6070470000C1
:1001E0000023002400250026103A28BF78C1FBD840
:1001F000520728BF30C148BF0B607047662903F023
:100200005A80642900F08280002070471FB503F0F7
:1002100048F800F033FB04000020002102F070FBDE
:10022000E0601FBD10B510BD00F040FC1146FFF7A7
:10023000EDFF02F0F7FA00F05EFC03B4FFF7F2FF07
:1002400003BC02F0DDFA0000094880470948004776
:10025000FEE7FEE7FEE7FEE7FEE7FEE7FEE7FEE776
:10026000FEE7FEE704480549054A064B70470000D3
:100270000121000889010008F0000020F00600209C
:10028000F0020020F0020020704700000FB4044983
:1002900010B503AA029800F0DFFA10BC5DF814FB59
:1002A0001C0000202DE9F0410E460446002020628B
:1002B0002046E168884730B3252805D0D4E90121DC
:1002C0009047206A401CF2E7E168204600278847F3
:1002D000050018D0A5F14100192802D820354FF4A7
:1002E00000673246294620462760FFF787FF40B166
:1002F000012804D0F61D26F007060836D8E7361D7B
:10030000D6E72846DAE7206ABDE8F0812DE9F0411A
:100310000646002410687529314616A510D0AFF3A3
:100320000080002802DA404213A507E031688A07FE
:1003300001D512A502E0490704D511A5012401E069
:10034000AFF3008000210A2206F1240709E0B0FB88
:10035000F2FCB0FBF2F302FB1C003030785418467C
:10036000491C0028F3D123462A463046BDE8F04117
:1003700000F00CB8000000002D0000002B00000071
:100380002000000070477047704770472DE9F04724
:100390000D4699469246044600F1240801688806F5
:1003A00004D5E06921F01001216000E00120A8429D
:1003B00001DD471B00E00027A1697A1902EB090063
:1003C000081AA0612078C00602D42046AFF300804E
:1003D000002608E0D4E901211AF806009047206AB7
:1003E000401C761C20624E45F4DB2078C0060AD5FE
:1003F0002046AFF3008006E0D4E901213020904789
:10040000206A401C2062381EA7F10107F4DC07E0D7
:10041000D4E9012118F805009047206A401C2062A9
:10042000281EA5F10105F3DC2046AFF300802078FB
:10043000000602D50220BDE8F0870120FBE77047E7
:100440002DE9FF4F0C461E464FF0FF378BB0D2E927
:100450000001DDF860800A908A46C1F30A5505B9AB
:100460003D46002108464FF00000BAF1000F00F4AD
:10047000400005DA00EB80004FF4400101EA500033
:100480004FEA9059B9F1010F00DDB9460A9850EAD8
:100490004A000ED044F61050A5F2FF3545432F1404
:1004A000B8F1000F1ED07542291E1EDDC9F10002F1
:1004B0001CE0B8F1010F4FF0000001D0302103E043
:1004C000F24305E02154401CB042FBDB30460022E1
:1004D000002121540B99C1F80880C1E900200FB018
:1004E000BDE8F08FBD1B6D1CDEE74A4600DA6942AD
:1004F00006A800F065FA06AB93E8070003AB83E8B3
:10050000070050460A9900F03DFB8DE80700A0F572
:1005100000501F3800900398002D09DD42F21F01A2
:100520004A46084403A90390684600F09CFD08E091
:10053000A0F500504A461F3803A90390684600F012
:10054000A6FD8DE807000004000C03D04FF0FF303B
:10055000410800E01046B8F1000F03D000220092DD
:1005600015461EE0751E05D400F08CF93032625538
:100570006D1EF9D5B3460122084302D000227F1C2C
:1005800004E02078302801D100227F1E002A09973C
:1005900086D01DE0112D07DA00F074F93032625573
:1005A0006D1C50EA0102F5D1084302D00098C8B191
:1005B0000EE00021681E05E0235C625C6354225457
:1005C000401E491C8142F7DBAB46A81B401E099028
:1005D000002004F80B000B98099AC0F80880C0E9C5
:1005E000002B7CE711264FF0000859E72DE9F04F6A
:1005F00088460446D21D22F0070191B0D1E90001DE
:10060000CDE90A0102F0E4F802460B98C00F01D0D0
:100610002D2007E02068810701D52B2002E0202152
:1006200001EAC000032A099001D0072A05DB03462E
:100630004146204600F084F90BE12078800601D580
:10064000E06900E00620B8F1650F814606D0B8F1F8
:10065000660F18D0B8F1670F70D131E00020B9F102
:10066000110F009001DB112301E009F101030AAA37
:1006700001A90CA8FFF7E4FEDDE90C70002609F1E2
:100680000105834647E001204B4600904FF00047AC
:100690000AAA01A90CA8FFF7D3FEDDE90DB00C9959
:1006A0005D46002610B909F101000D18B9EB0500EF
:1006B00003D4C0F1FF3609F10105A5EB09002BE0D9
:1006C000B9F1010F01DA4FF001090020B9F1110F62
:1006D0000090484601DD112300E003460AAA01A963
:1006E0000CA8FFF7ADFEDDE90C704D4600268346F1
:1006F000207800070AD4AB4500DA5D4601A8012D39
:1007000004DD411911F8011C302907D04F4502DAE8
:1007100017F1040F04DA012082460FE06D1EEEE7A8
:10072000002F02DCED1B3E4403E0781CA84200DDF4
:100730007D1CB81B00F1010A4FF00047207800072C
:1007400003D4AA4501DB4FF0FF3A0021B7F1004F77
:100750000DF143088DF8431024D002202B23002FE5
:1007600001DA7F422D230A21021EA0F1010000DCE4
:100770005FB197FBF1FC97FBF1F201FB1C7C174684
:100780000CF1300C08F801CDEEE7A8F10100037080
:100790002188090501D5452100E06521A0F1010866
:1007A00000F8011C09980FA9A1EB0807FF1D00B173
:1007B0000120411901EBEA70A1693844081A401E72
:1007C000A0612078C00602D42046AFF300800998CB
:1007D00028B1D4E901219047206A401C206220788A
:1007E000C00622D52046AFF300801EE0002E04DBB9
:1007F000B34502DD01A8805D00E03020D4E901218D
:100800009047206A401C2062761CAAF101005FEA32
:10081000000A0AD100F032F8C0680168405CD4E9EF
:1008200001219047206A401C2062281EA5F1010585
:10083000DCDC07E0D4E9012118F8010B9047206ABD
:10084000401C2062381EA7F10107F3DC2046AFF3FD
:100850000080032011B043E6074B70B50D467B4482
:1008600000F05BF80446284600F018F910B14FF08C
:10087000FF3070BD204670BDA71F000000487047C4
:10088000B000002030B5B0F10A024FEA900E71F1CD
:1008900000034EEA817EB0EB0E0061EB91014FEA5E
:1008A000101E4EEA017E10EB0E0041EB11114FEAD3
:1008B000102E4EEA016E10EB0E0041EB11214FEAB3
:1008C000104E4EEA014E10EB0E0041EB1141401864
:1008D00041F100014FEAD00040EA41704FEAD101F6
:1008E00010EB80054FEA810444EA907444EB010464
:1008F0006D1944EB0404521BA3414FF0000348BFA1
:100900000A3200D530BD401C41F1000130BD00006D
:1009100001694A1C02610878704700B58FB0CDE9C3
:1009200001310021059105497944CDE903101146B3
:100930006846FFF7B7FC0FB000BD0000E5FFFFFF02
:100940002DE9F0411F46044603260168072A01F4F9
:10095000006004DB08B116A505E016A503E008B1A8
:1009600015A500E015A521F010002060A069C01EAB
:10097000A0610FB1401EA0612046AFF300804FB1CF
:10098000D4E9012138469047206A401C2062C01CEF
:10099000206206E0206AFAE7D4E9012115F8010B8C
:1009A0009047761EF8D22046AFF30080BDE8F08174
:1009B0004E414E006E616E00494E4600696E660003
:1009C0002DE9F047814616468AB0334878440DC871
:1009D0008DE80D0030487844801C03AC0DC884E8D5
:1009E0000D0041F69B300844372190FBF1F290FB5B
:1009F000F1F5A5F1800501FB12041B3C02D5644210
:100A0000012000E00020DFF890A080460027FA4493
:100A1000AAF1BE0A0DE0E00709D03246684607EBAE
:100A200047010AEB810100F032FB8DE807006410FA
:100A30007F1C002CEFD1184F7F44AC3F18E0E80733
:100A400014D007EB04100DF1180A90E80E008AE8A4
:100A50000E00C068F04201D198190890324606A9EC
:100A600003A800F014FB03AB83E807006D10641CBF
:100A7000002DE4D132466946B8F1000F03A802D038
:100A800000F0F1FA01E000F002FBC9E90001C9F849
:100A900008200AB0BDE8F08768290000007B00F05C
:100AA0008000704700487047900000207546FFF7AF
:100AB000F9FFAE4605006946534620F0070085461B
:100AC00018B020B5FFF7CEFBBDE820404FF0000680
:100AD0004FF000074FF000084FF0000B21F0070126
:100AE000AC46ACE8C009ACE8C009ACE8C009ACE869
:100AF000C0098D4670470446AFF300802046FFF7DB
:100B00009CFB00004FF0013C50F8042B51F8043BD3
:100B10009A4221D1A2EB0C03934313EACC1317D1D1
:100B200050F8042B51F8043B9A4215D1A2EB0C0368
:100B3000934313EACC130BD150F8042B51F8043B28
:100B40009A4209D1A2EB0C03934313EACC13DBD0F6
:100B50004FF00000704700BFD01A01BAB1FA81F11E
:100B600001F0180122FA01F0CB40C1F12001DBB203
:100B7000C0B2C01A2CFA01F3D11A914311EAC31181
:100B8000E6D170475FEA400C08BF91F0000F4FEAD2
:100B90008C234FEAC12243EA51514FEA1C5018BF3F
:100BA00000F5F0404FEA300018BF41F000415FEA25
:100BB0006C5C00F02980BCF1FF3F08BF40F0804032
:100BC0007047130C06BF12044FF0100C4FF0000CCE
:100BD000130E04BF12020CF1080C130F04BF120114
:100BE0000CF1040C930F04BF92000CF1020CD30F14
:100BF00004BF52000CF1010C11464FF00002A0F1AD
:100C00001F00A0EB0C00704711F0004F08BF7047A9
:100C100031F000413FF4D5AF0B0C06BF09044FF093
:100C2000100C4FF0000C0B0E04BF09020CF1080C65
:100C30000B0F04BF09010CF1040C8B0F04BF8900DA
:100C40000CF1020CCB0F04BF49000CF1010CCCF1EC
:100C50002003A0EB0C0022FA03F302FA0CF241EAA3
:100C6000030100F10100704720F07F4C80EA03008F
:100C700023F07F47ACEB070303F57C5300F0004003
:100C800003F1FF032DE980494FEA154B09B44FEA00
:100C9000144325EA0B4E24EA03480FF2042606EB20
:100CA000132749083E785FEA320203FB0667C7F55F
:100CB000000707FB06F64FEA54374FEAD64606F11F
:100CC000020607FB066CCCF1005C4FEA1C472CEADD
:100CD000074C07FB06F40CFB06F504EB15464FEA40
:100CE000961634BF00204FF000404FEAD13706FB84
:100CF00007FC4FEA1C4C0CFB0BF7D21B03FB0CF759
:100D000061EB07010CFB0EF7B0EB074072EB1742EB
:100D10000CFB08F734BFA2EB0742B2EB074261EBD2
:100D200017414FEA0C444FEA910706FB07FC4FEAD4
:100D30001C4C0CFB0BF7B0EBC74072EB573203FBBC
:100D40000CF734BFA2EBC742B2EBC74261EB57319D
:100D50000CFB0EF7B0EBC70072EB57720CFB08F7F9
:100D600034BFA2EBC702B2EBC70261EB5771039F1E
:100D70004FEA816141EA921104EBCC044FEAD1378A
:100D80004FEA826206FB07FC42EA90124FEA80605B
:100D90004FEA1C4C0CFB0BF7D21B03FB0CF761EB6F
:100DA00007010CFB0EF7B0EB074072EB17420CFB90
:100DB00008F734BFA2EB0742B2EB074261EB1741E1
:100DC0004FEA8C554FEA910704EB9C2406FB07FC85
:100DD0004FEA1C4C0CFB0BF7B0EBC74072EB5732E1
:100DE00003FB0CF734BFA2EBC742B2EBC74261EB87
:100DF00057310CFB0EF7B0EBC70072EB57720CFBD0
:100E000008F734BFA2EBC702B2EBC70261EB577120
:100E100015EB4C254FEA816141EA92114FEA82625B
:100E20004FEAD13742EA901206FB07FC44F1000476
:100E30004FEA80604FEA1C4C0CFB0BF7D21B03FB04
:100E40000CF761EB07010CFB0EF7B0EB074072EB00
:100E500017420CFB08F734BFA2EB0742B2EB074284
:100E600061EB174115EB1C154FEA813141EA9241C4
:100E70004FEA823242EA90424FEA80304FEA0C76E3
:100E800044F1000448EA03434EEA0B484FF0000ED9
:100E9000B2EB080C71EB030724BF624639464EEBF8
:100EA0000E0E4FF0000B0018524149414BEB0B0B5B
:100EB000B2EB080C71EB03077BF1000B24BF624619
:100EC00039464EEB0E0E4FF0000B001852414941CF
:100ED0004BEB0B0BB2EB080C71EB03077BF1000B38
:100EE00024BF624639464EEB0E0E51EA020718BF88
:100EF00046F0010616EB0E7655F1000254F10001A2
:100F000003D5BDE88901BDE80088BDE88901BDE8D9
:100F10000048B619524141EB0101A3F101037047AA
:100F200080807F7E7D7C7B7A797877767675747326
:100F3000727171706F6E6E6D6C6C6B6A6A696868E5
:100F4000676666656464636362616160605F5F5E7B
:100F50005E5D5D5C5C5B5B5A5A59595858575756F1
:100F60005655555554545353525252515150505056
:100F70004F4F4F4E4E4D4D4D4C4C4C4B4B4B4A4AA8
:100F80004A494949484848474747474646464545EC
:100F90004544444444434343434242424241414125
:100FA000002B26D4770021D01CB54FEA370703B4B5
:100FB0004FF010004FF010014FF000000FBCBDE8E3
:100FC00010400BF1010BBBF1010F08BF5FEA1707DF
:100FD00022BF12F1010211F101014FF0004143F172
:100FE000000300F0004043EA00007047F9D35708BF
:100FF000DAE746EA064613F1400F4FEA16461FDDD0
:1010000013F1200FDFBF16430A46002120335B4255
:10101000C8D0C3F1200746EA064602FA07F74FEAAE
:10102000164646EA0706C3F1200722FA03F201FA40
:1010300007F721FA03F14FF0000342EA0702B1E794
:1010400046EA020646EA06464FEA164646EA010620
:10105000BCBF46EA0646360C4FF000034FF00002D4
:101060004FF000019EE72DE9C048934630B491E867
:10107000380007C831EA400C48BF34EA430C03D5B6
:10108000FFF7F2FDFFF78CFFF0BCBDE800882DE90B
:10109000C048934630B491E8380007C810F0804F3C
:1010A00008BF13F0804F03D100F005F8FFF778FF79
:1010B000F0BCBDE8008820F07F4780EA030023F001
:1010C0007F4C07EB0C03A3F57C5300F00040A3F129
:1010D000FE0392F0000F00F0B38095F0000F00F0D7
:1010E00077802DE901494FEA11404FEA144621EA81
:1010F000004800FB06FC24EA064708FB06F607FB4F
:1011000008F800FB07F718EB06484CEB164C4FEAC3
:10111000124B18EB07484FEA15464CEB174022EAF2
:101120000B4E0BFB06FC25EA06470EFB06F607FBFB
:101130000EFE0BFB07F71EEB064E4CEB164C4FF06A
:1011400000061EEB074E4CEB174B18EB0B0840F15B
:10115000000018EB0E0B58EB000840F100008F1A4E
:101160004FF000013CBFC943661B14BFB5EB040C34
:1011700000213CBFC943F61B4FEA17444EEA8E0ECE
:1011800027EA04454FEA1C4704FB07622CEA074C98
:1011900005FB07F70CFB05F604FB0CFC16EB0746FA
:1011A00042EB174216EB0C4642EB1C421BEB0606C9
:1011B00058EB0202414146EA9E0601D5BDE801898D
:1011C000B619524141EB0101A3F10103BDE80189C8
:1011D0004FEA14454FEA114724EA054621EA074C35
:1011E00005FB07F406FB07F70CFB06F105FB0CFCFF
:1011F00011EB074144EB17444FEA124711EB0C4146
:1012000044EB1C4422EA074C05FB07F206FB07F7F8
:101210000CFB06F605FB0CFC16EB074642EB1742EF
:1012200016EB0C4642EB1C456A1854F1000148BF0E
:101230007047B619524141EB0101A3F10103704718
:1012400095F0000F37D04FEA11424FEA144721EAD8
:10125000024624EA074C02FB07F106FB07F70CFBEA
:1012600006F402FB0CFC14EB074441EB17414FEA78
:10127000154714EB0C4441EB1C4125EA074C02FBDB
:1012800007F506FB07F70CFB06F602FB0CFC16EB5A
:10129000074645EB174516EB0C4645EB1C42121969
:1012A00051F1000148BF7047B619524141EB0101AD
:1012B000A3F1010370474FEA14454FEA114724EAAE
:1012C000054621EA074C05FB07F106FB07F70CFB77
:1012D00006F24FF0000605FB0CFC12EB074241EB57
:1012E000174112EB0C4251EB1C4148BF704792185A
:1012F00041EB0101A3F10103704700BFFEE7704716
:101300001FB50121084600F0A3FD0920029042F21A
:10131000CF00ADF804000020ADF80600ADF80C00D9
:1013200001A94FF0804001F0B3F801221146900767
:1013300001F056F81C208DF8000001208DF8010006
:1013400003208DF8020001208DF80300684600F0AC
:1013500007FD00214FF0804001F001F81FBD0000A3
:1013600010B50446084804600121880700F0F7FF23
:1013700000BF054800680028FBD100214FF08040E5
:1013800000F0EDFF10BD00001800002000B587B090
:101390000121022000F04CFD0121022000F048FD57
:1013A0000121042000F044FD0121042000F040FD53
:1013B0000121042000F04CFD0121022000F048FD35
:1013C00005A800F0FEFA02208DF8180001208DF823
:1013D0001B00C020059005A9364800F083FA03A839
:1013E00000F0EFFA02208DF8100001208DF81300B4
:1013F000C020039003A9304800F074FA02220621AD
:101400002C4800F0B7FA022207212A4800F0B2FA6D
:1014100002220621284800F0ADFA022207212648C0
:1014200000F0A8FA00231A460321244800F0A3FF85
:1014300000231A460321224800F09DFF47F6FF7162
:101440001E4801F01EF847F6FF711D4801F019F81B
:1014500001221146194800F0C3FF01221146184825
:1014600000F0BEFF1E208DF8080001208DF80B0053
:101470008DF8090003208DF80A0002A800F070FC26
:101480001D208DF8040001208DF807008DF805005F
:1014900003208DF8060001A800F062FC0121074836
:1014A00000F05DFF0121064800F059FF00F0BEF991
:1014B00007B000BD000402400008024000080040E0
:1014C0000004004010B52DED0A8BBF48B0F90000B4
:1014D000BE490880BE4800F06FFF00B2BA490880DC
:1014E0000846B0F90000B949B1F90010884223DD7F
:1014F000B8480078012812D10020B6490870401E73
:10150000B5490880B048B0F90000A0F5FE40FF38AA
:10151000AE49B1F90010401AB04908603CE0012022
:10152000AD490880A848B0F90000A849B1F90010F9
:10153000401AAA4908602FE0A348B0F90000A34967
:10154000B1F90010884224DAA2480078012812D1AB
:101550000020A049087001209F4908809A48B0F9EE
:10156000000047F6FF7108449849B1F90010401A8D
:101570009A49086010E04FF0FF3097490880924880
:10158000B0F900009149B1F90010401A9349086080
:1015900002E00020914908609148B0F900009149AB
:1015A0000880914800F008FF00B28D490880084685
:1015B000B0F900008B49B1F90010884223DD8B4857
:1015C0000078012812D1002088490870401E8849FF
:1015D00008808348B0F90000A0F5FE40FF3881493B
:1015E000B1F90010401A834908603CE001208049AD
:1015F00008807B48B0F900007A49B1F90010401A20
:101600007C4908602FE07648B0F900007549B1F9CF
:101610000010884224DA75480078012812D1002091
:10162000724908700120724908806D48B0F90000C5
:1016300047F6FF7108446B49B1F90010401A6D4933
:10164000086010E04FF0FF30694908806448B0F945
:1016500000006449B1F90010401A6649086002E0D0
:101660000020644908606448008800EE100AB8EE63
:10167000400A10EE100A01F0A3FD41EC1A0B574886
:10168000006800EE100AB8EEC00ADFED5C0A80EEDA
:10169000201A11EE104A204601F092FD41EC1C0B7D
:1016A0009FED570B53EC102B01F0A2FB41EC1B0BF1
:1016B00053EC1A2B01F014FA41EC190B9FED520B6D
:1016C00053EC102B01F094FB41EC180B01F02EF9B8
:1016D00000EE100A4E4880ED000A4748008800EEF0
:1016E000100AB8EE400A10EE100A01F069FD41EC54
:1016F0001A0B4048006800EE100AB8EEC00ADFED91
:101700003F0A80EE201A11EE104A204601F058FDE3
:1017100041EC1C0B9FED3A0B53EC102B01F068FBD6
:1017200041EC1B0B53EC1A2B01F0DAF941EC190BCD
:101730009FED350B53EC102B01F05AFB41EC180BCD
:1017400001F0F4F800EE100A324880ED000A30484B
:1017500090ED000ADFED300A20EE200A10EE101A9C
:10176000084601F02DFD41EC190B9FED2C0B53ECBD
:10177000102B01F0B5F941EC180B01F0D7F800EE91
:10178000100A284880ED000A224890ED000ADFED9B
:10179000220A20EE200A10EE101A084601F010FD71
:1017A00041EC190B9FED1D0B53EC102B01F098F938
:1017B00041EC180B01F0BAF800EE100A1A4880ED5F
:1017C000000ABDEC0A8B10BD3C0000203A0000204E
:1017D00000080040200000202C00002040000020D5
:1017E00046000020440000200004004021000020AA
:1017F00038000020480000204C0000200000B445C4
:101800001F85EB51B81E19400000000000408F40BA
:101810002400002030000020000070427FBDC28202
:10182000FB211940280000203400002010B572B6BA
:1018300000201B4908801B4908801B4908601B4980
:1018400008709FED1B0A1B4880ED000A00201A4912
:1018500008809FED170A194880ED000A00201849FA
:1018600008801849088018490860184908709FEDD9
:10187000100A174880ED000A0020164908809FEDE5
:101880000C0A154880ED000A0021144800F0FDFD07
:101890000021134800F0F9FDFFF714FE62B610BDF9
:1018A0003A0000203C0000204000002020000020E2
:1018B00000000000240000202C0000202800002050
:1018C00044000020460000204800002021000020A5
:1018D00030000020380000203400002000080040C4
:1018E00000040040F0B50A4600210023002400BF98
:1018F0003DE0012505FA01F3156805EA03049C4261
:1019000034D105684F000326BE40B5430560157904
:101910004E00B5400668354305601579012D02D0AB
:101920001579022D16D185684F000326BE40B543B8
:10193000856055794E00B5408668354385604568B9
:1019400001268E40B5434560456896798E40B6B213
:1019500035434560C5684F000326BE40B543C560AA
:10196000D5794E00B540C6683543C560491C10297D
:10197000BFD3F0BDF0B5002300244D07ED0E02FAF1
:1019800005F3CE1000F1200555F826504E07F70E4E
:101990000F26BE40B543CF1000F1200646F8275071
:1019A000CE1000F1200555F8265045EA0304CE106C
:1019B00000F1200545F82640F0BD418370470183C2
:1019C00070474FF6FF710160002101714171817113
:1019D000C171704700BFFEE710B52DED068B0446C0
:1019E00094ED030AB0EE408A94ED030AD4ED060AA2
:1019F00030EE600AF0EE408A94ED060AD4ED070A54
:101A000030EE600AB0EE40AA94ED060A84ED070AB3
:101A100094ED030A84ED060AB0EE689AF0EE489A57
:101A2000F0EE000AB0EE480A00EEE80A30EE0A0ACC
:101A3000F0EE40AA94ED000A20EE090AD4ED010A66
:101A400000EEA90AD4ED020A00EEAA0A84ED040A07
:101A500094ED040ADFED1B0AB4EEE00AF1EE10FA91
:101A600003D89FED180A84ED040A94ED050AD4ED1D
:101A7000040A30EE200A84ED050A94ED050ADFED34
:101A8000120AB4EEE00AF1EE10FA04DD9FED0E0A40
:101A900084ED050A0AE094ED050AB5EEC00AF1EE00
:101AA00010FA03D29FED090A84ED050A94ED050AA8
:101AB000BDEEC00A10EE100A00F000FCBDEC068B73
:101AC00010BD0000000020C20040034500000000DF
:101AD0001CB50121202000F0ABF901208DF8040095
:101AE00000208DF806004FF4C060009001208DF8B2
:101AF000070003208DF8050069460448FFF7F2FE51
:101B00004FF4C0610148FFF75AFF1CBD00140240AA
:101B100010B54FF4C0610248FFF751FF10BD00003F
:101B20000014024010B54FF4C0610248FFF745FFB2
:101B300010BD00000014024000BFFEE71FB50121E8
:101B4000182000F075F901208DF80C0000208DF8A8
:101B50000E00C020029001208DF80F0003208DF8A8
:101B60000D0002A90E48FFF7BDFE01208DF804000C
:101B700000208DF806006020009001208DF80700FD
:101B800003208DF8050069460648FFF7ABFEC0212B
:101B90000348FFF714FF60210248FFF710FF1FBD45
:101BA000000C0240001002402DE9F0412DED0A8B9F
:101BB0000646B0EE408AF0EE608A0F4618EE100A34
:101BC00001F0FEFA41EC1C0B9FED2B0B53EC102B9C
:101BD00001F00EF941EC1B0B9FED290B53EC102B80
:101BE00000F0D6FE41EC1A0B9FED270B53EC102BA7
:101BF00001F0FEF841EC190B01F0CAF8044600EEC2
:101C0000104AB8EE400A224880ED050A18EE900A04
:101C100001F0D6FA41EC1C0B9FED170B53EC102B87
:101C200001F0E6F841EC1B0B9FED150B53EC102B6C
:101C300000F0AEFE41EC1A0B9FED130B53EC102B92
:101C400001F0D6F841EC190B01F0A2F8054600EEC0
:101C5000105AB8EE400A0F4880ED050A204600F001
:101C6000D3FA284600F02AFB3946304600F014F833
:101C7000BDEC0A8BBDE8F0818E5A61FA5E43E93F04
:101C8000000000000000314000000000000035406E
:101C9000500000207000002070B504460D4600265C
:101CA00034B1012C0AD0022C0ED0032C20D115E027
:101CB000C0212848FFF783FE01261CE0C0212548EB
:101CC000FFF77BFE012616E080212248FFF777FE12
:101CD00040212048FFF771FE01260CE040211D48FD
:101CE000FFF76DFE80211B48FFF767FE012602E02B
:101CF0004FF0FF3600BF00BF35B1012D0AD0022DD5
:101D00000ED0032D20D115E060211348FFF757FEB8
:101D100001261CE060211048FFF74FFE012616E067
:101D200020210D48FFF74BFE40210B48FFF745FEF1
:101D300001260CE040210848FFF741FE202106481B
:101D4000FFF73BFE012602E04FF0FF3600BF00BF69
:101D5000304670BD000C0240001002407047000089
:101D600070B5002100230F22C4781CB3174C2468DF
:101D700004F4E064C4F5E064C4F30721C1F1040491
:101D8000E3B20A4144789C40E1B284781440214394
:101D90000C07210E0E4C05786155047804F01F05E0
:101DA0000124AC4005786D11AD0005F1E025C5F8C2
:101DB000004109E0047804F01F050124AC40054D02
:101DC0000678761145F8264070BD00000CED00E065
:101DD00000E400E080E100E002490143024A1160B2
:101DE000704700000000FA050CED00E010B52DED85
:101DF000028BF0EE408AB0EE608A38EEC80A0A48DC
:101E000080ED030AB1EE040A80ED000AB7EE000A85
:101E100080ED010AB7EE000A80ED020AFFF7DCFD53
:101E2000BDEC028B10BD0000700000207047000068
:101E300029B1064A12680243044B1A6004E0034ABF
:101E400012688243014B1A6070470000303802402C
:101E500029B1064A12680243044B1A6004E0034A9F
:101E600012688243014B1A607047000040380240FC
:101E700029B1064A12680243044B1A6004E0034A7F
:101E800012688243014B1A607047000044380240D8
:101E9000F0B5002100220024022500260223324F43
:101EA0003F6807F00C0121B1042905D0082937D17A
:101EB00005E02E4F076036E02D4F076033E02A4FD4
:101EC0003F1F3F68C7F38056274F3F1F3F6807F00B
:101ED0003F036EB1264FB7FBF3F7DFF88CC0ACF1D0
:101EE000040CDCF800C0CCF3881C07FB0CF40CE0FD
:101EF0001E4FB7FBF3F7DFF870C0ACF1040CDCF851
:101F000000C0CCF3881C07FB0CF4174F3F1F3F6841
:101F1000C7F301477F1C7D00B4FBF5F7076002E0C3
:101F2000124F076000BF00BF0F4F3F6807F0F0017E
:101F30000909104F7A5C0768D74047600A4F3F682D
:101F400007F4E051890A0B4F7A5C4768D7408760F5
:101F5000054F3F6807F46041490B064F7A5C4768BC
:101F6000D740C760F0BD0000083802400024F400EC
:101F700000127A0006000020704700000CB5002017
:101F8000019000903448006840F480303249086085
:101F900000BF3148006800F4003000900198401CF8
:101FA0000190009818B90198B0F5A04FF1D12A48D6
:101FB000006800F4003010B10120009001E0002022
:101FC00000900098012846D123484030006840F036
:101FD00080502149403108602048006840F440406A
:101FE0001E4908601C48083000681B490831086019
:101FF0000846006840F4004008600846006840F465
:10200000A05008601648091F0860081F006840F0CB
:102010008070091F086000BF0F48006800F0007062
:102020000028F9D040F205700E4908600A480830CF
:10203000006820F00300084908310860084600687D
:1020400040F00200086000BF03480830006800F05C
:102050000C000828F8D10CBD003802400070004088
:1020600008544007003C0240042808D14FF0E0210A
:10207000096941F004014FF0E022116107E04FF0DF
:10208000E021096921F004014FF0E022116170475D
:1020900010B5FFF717FA0648D0ED000A054800888A
:1020A00000EE100AB8EE400AFFF7A0FE10BD0000D7
:1020B000340000200200002010B56FF00400FFF78C
:1020C000D3FF0E4909884FF47A725143A82201FBCD
:1020D00002F0C11700EB5171C9104FF0E0225161BD
:1020E0000020114688610846006940F0020008613E
:1020F0000846006940F00100086110BD4C00002056
:1021000010B51548006840F4700013490860134882
:10211000006840F001001149086000200F490831B3
:1021200008600E4800680E4908400C4908600D48D8
:10213000091D0860081F006820F48020091F08603E
:10214000002006490C310860FFF718FF4FF00060CF
:1021500001498039086010BD88ED00E00038024078
:10216000FFFFF6FE1030002430B58BB004460D465C
:1021700001214804FFF77CFE01212020FFF758FED3
:10218000032206211E48FFF7F5FB4020099002209C
:102190008DF8280003208DF8290000208DF82A00F2
:1021A00001208DF82B0009A91548FFF79BFBA8B269
:1021B000ADF818000020ADF81A000794ADF8200023
:1021C00006A9104800F064F96020ADF80400012071
:1021D000ADF806000020ADF8100001A9094800F094
:1021E00009F90821074800F043F90121054800F0EA
:1021F000A7F80121034800F0B2F80BB030BD000091
:10220000001402400044014010B504462146024833
:1022100000F039F910BD00000044014030B58BB02A
:1022200004460D4601218804FFF722FE01212020EB
:10223000FFF7FEFD032207211E48FFF79BFB8020CE
:10224000099002208DF8280003208DF82900002035
:102250008DF82A0001208DF82B0009A91548FFF7F9
:1022600041FBA8B2ADF818000020ADF81A000794A1
:10227000ADF8200006A9104800F00AF96020ADF87A
:1022800004000120ADF806000020ADF8100001A9FF
:10229000094800F0AFF80821074800F0E9F80121EB
:1022A000054800F04DF80121034800F058F80BB044
:1022B00030BD0000001402400048014010B5044643
:1022C0002146024800F0DFF810BD00000048014040
:1022D00010B50121880700F072F8012804D10548E3
:1022E0000068401E034908600121880700F034F8A7
:1022F00010BD00001800002010B50121054800F0B5
:102300005EF8012801D1044908700121014800F05C
:1023100023F810BD000400402100002010B5012169
:10232000054800F04CF8012801D10449087001214A
:10233000014800F011F810BD000800402000002006
:1023400021B1028842F08002028004E002884FF648
:102350007F731A4002807047CA430282704721B1DE
:10236000028842F00102028004E002884FF6FE7308
:102370001A4002807047F0B50C4615461E460021F3
:10238000002200230189028B038C4FF6F877394035
:1023900021434FF6FC473A4040F201173A434FF6CB
:1023A000DD773B404FF6FF7707EA06172F433B43A5
:1023B000018102830384F0BD0146486A704730B54D
:1023C0000246002000230024158A05EA01039589AE
:1023D00005EA010413B10CB1012000E0002030BD7A
:1023E0001AB183890B43838102E083898B43838104
:1023F0007047000070B5002400220023058C4FF6C2
:10240000FE7635400584028C8388048B4FF68F75E9
:102410002C40B51E2C400D882C43751E2A408D89FA
:102420002A434D882A43104DA84202D00F4DA8429E
:1024300013D14FF6F7752A40CD892A434FF6FB7525
:102440002A408D882A434FF6FF652B404FF6FF55F3
:102450002B400D8A2B434D8A2B43838004838D6848
:102460004563028470BD000000000140000401408B
:102470000A460021018B4FF6F7731940114301837F
:102480007047C16270474163704741627047000006
:1024900000220288184B98420ED0184B98420BD05D
:1024A000B0F1804F08D0164B984205D0154B98429A
:1024B00002D0154B984204D14FF68F731A404B88C7
:1024C0001A43124B984207D0114B984204D04FF652
:1024D000FF431A400B891A4302804B68C3620B8882
:1024E0000385054B984202D0044B984201D18B7A68
:1024F00003860123838270470000014000040140ED
:102500000004004000080040000C004000100040A3
:102510000014004010B540F225510F4800F03FF87C
:1025200098B101200D4908700B4800F0F1F80C49F2
:10253000088002210A48008800EE100AF8EE400ADE
:1025400000209FED080AFFF72FFB40F225510248BB
:1025500000F00AF810BD000000100140000000204B
:10256000020000200000000010B50022002340F609
:102570006A14A14200D100BF0A1201249440A3B200
:10258000DC43048010BD21B1828942F40052828173
:1025900004E082894DF6FF731A408281704770B55E
:1025A0000246002400230025002040F66A16B142AE
:1025B00000D100BFC1F3421501F01F03012606FA46
:1025C00003F3012D02D19689334006E0022D02D19A
:1025D000168A334001E0968A33400C12012606FA2F
:1025E00004F41688344013B10CB1012000E000203F
:1025F00070BDF0B50346002400260025002040F6FB
:102600006A17B94200D100BF1846C1F3421401F065
:102610001F06012707FA06F5012C01D10C3004E052
:10262000022C01D1103000E014301AB107682F439A
:10263000076002E00768AF430760F0BD2DE9FF4780
:1026400005460E460024A14600BFA046B08900B151
:1026500000BF2C8A24F44054F08804432C82AC89B7
:1026600041F20C608443B088318908437189084382
:102670000443AC81AC8A24F44074B0890443AC8236
:102680006846FFF705FC2048854202D01F48854276
:1026900002D1DDF80C9001E0DDF80890A88900F483
:1026A000004040B109EBC90000EB09103168490056
:1026B000B0FBF1F707E009EBC90000EB0910316846
:1026C0008900B0FBF1F76420B7FBF0F004012009AA
:1026D000642101FB1078A88900F4004040B1322049
:1026E00000EBC800B0FBF1F000F00700044308E085
:1026F000322000EB08106421B0FBF1F000F00F0075
:1027000004432C81BDE8FF87001001400014014004
:1027100001468888C0F30800704700BFFEE700004C
:1027200010B588B0044601211020FFF7A1FB01215C
:102730000846FFF77DFB072209212348FFF71AF916
:1027400007220A212048FFF715F902208DF81C0006
:1027500000208DF81E004FF4C060069001208DF817
:102760001F0002208DF81D0006A91748FFF7BAF8D0
:1027700002940020ADF814000C20ADF812000020E7
:10278000ADF81000ADF80E00ADF80C0002A90F482E
:10279000FFF754FF25208DF8040001208DF8070075
:1027A00002208DF805008DF8060001A8FFF7D8FA81
:1027B000012240F225510548FFF71BFF0121034884
:1027C000FFF7E1FE08B010BD00000240001001401C
:1027D00003B401984100009850EAC12018BF0420BA
:1027E0004A0D18BF40F0010040F2FF72B2EB515F9A
:1027F00008BF40F00200012808BF052002B0704762
:10280000014600BF7047000000BF054A128802F071
:102810004002002AF9D0C2B2014B9A8070470000F2
:10282000001001402DED048B84B000202849087071
:10283000284908804FF4A060FFF7CEFAFEF760FD4C
:10284000FFF746F94FF41650FFF76AFF032140F6F1
:102850003300FFF789FC032140F63300FFF7DEFC6D
:10286000FFF76CF9FEF792FDFFF726FC2FE01A4800
:102870000088401C1849088008460088052805DBA8
:10288000FFF750F900201449088001E0FFF740F9F4
:10289000C820FEF765FD0E480078012817D10F48C3
:1028A000006800F08DFC41EC190B0D48006800F049
:1028B00087FC41EC180B8DED029B8DED008B0948D8
:1028C000B0F900200348018807A0FDF7DFFCCEE740
:1028D0000000002002000020040000203000002042
:1028E000340000203800002053706565643A2025CC
:1028F00064202564202566202566200A000000004B
:1029000010B500290AD00878002807D00548784477
:10291000FEF7F8F8002801D0002010BD02487844E6
:1029200010BD0000620A00005A0A000021F00042B7
:10293000A2F16052B2F5801F01F0004328BFD2F12E
:102940007F6C0BD95FEA001C43EAC20242EB507075
:1029500018BF704728BF20F001007047B2F5801FF4
:10296000BCBF184670474FEA410C1CF5001F02D24D
:10297000084600F09BBC70B500F0E4FA0000008946
:10298000FFF7F6BF4FF00040A0F580007047000051
:1029900010B591EA030F48BF83F0004300F12E8386
:1029A000841A71EB030C05D2121943EB0C03001BC4
:1029B00061EB0C01DFF824E14FEA1154A4EB135C46
:1029C0001EEA430F18BF9EEA445F73D023EA0E034A
:1029D000DCF1200E21EA045143F4801332D322FAB1
:1029E0000CFE10EB0E0023FA0CFE41EB0E01CCF1B5
:1029F000200E03FA0EFE10EB0E0051F10001B1F5AE
:102A0000801FCCF1200E32D201EB045112FA0EF2EB
:102A1000BDE8104058BF7047401C38BF5FEA420213
:102A200018BF7047002814BF20F0010041F10001D9
:102A30004FEA410313F5001F38BF7047A1F1C041B1
:102A400000F0CEBA012A43EB0302ACF1200CDCF11A
:102A50001F0E32BF4FF0000E23FA0CF310EB0300F1
:102A600041EB0451B4EB115FD0D0A1EB045101F55F
:102A7000801149085FEA300001EB04510ED350F198
:102A8000000038BF12FA0EFE08D1BDE81040C9E7B9
:102A9000401C38BF5FEA4202CAD1C3E7BDE810401C
:102AA0004FEA410313F5001F38BF7047A1F1C04141
:102AB00000F096BA9EEA445F08D011EA5E0FBDE8C6
:102AC000104004BF01F0004100207047BDE81040F5
:102AD00070B500F037FA00BF64FBBE3E0000E0FFB7
:102AE0002DE9C04130B4DFF8A0C23CEA111418BF90
:102AF0003CEA131400F0EC8081EA03051CEA11148F
:102B000044EAD57418BF1CEA131500F0C780A4EB83
:102B100005044FF0004545EAC12145EAC32341EAD7
:102B2000505143EA525304F17F74994204F5003442
:102B30004FEAC0204FEAC22208BF904200F09C80BA
:102B40004FEA13650FF24016765D4FEA134506FB18
:102B500005F7C7F1807706FB07F74FEAD737A7FBE2
:102B600003687642C8F58038A7FB06CE38BFA8F1C7
:102B7000010807FB08E64FF0000EA6FB028CE6FBFF
:102B800003CEDCF1000CCEF1004E38BFAEF1010EE9
:102B9000A6FB0C584FF000074FF00005E6FB0E8730
:102BA000A1FB08C6A0FB07CE16EB0E0645F10005FB
:102BB000E1FB076515F1E04E7EBFA4F580345FEAC6
:102BC00046066D4116F1800745F100054FEA1727CB
:102BD0004FEA066647EA0567A6F1DE46B6F1805F72
:102BE0004FEA15251FD9384624F0010C05EBC471B6
:102BF000BCF1FE6F01EB0C1102D8F0BCBDE8008106
:102C000024425CBF01F5801E9EEAC47F02D4F0BC62
:102C1000BDE80081244238D4F0BCA1F1C041BDE838
:102C2000004100F0DDB94FEAD22242EA43524FEAB6
:102C3000D323A7FB02864FEAD02040EA415007FB8E
:102C400003661EEA0E0F4FEAD12105FB026658BF4C
:102C5000A6EB0056B6EB00564FEA520E4EEAC37E84
:102C600018EB0E0E56EB530EBDD518EB02085E4165
:102C70007F1C55F10005B6E74FF480154FF00007B3
:102C80004FF000064FF00008ADE7F0BC4FF0000039
:102C900001F1C04101F00041BDE8008111EA0C1FC3
:102CA0000CEA131500D00CE013EA0C1F00F025808D
:102CB0004FF00000F0BC81EA030101F00041BDE8E3
:102CC0000081F0BCBDE8004181EA030100F088B951
:102CD000F0BCBDE8004170B500F034F9097EFC3E5F
:102CE00000F007B881EA03014FF0000001F0004155
:102CF000704781EA030100F073B9F0BCBDE8004100
:102D00004FF0000021497047FFFDFBF9F7F5F4F2A1
:102D1000F0EEEDEBE9E8E6E4E3E1E0DEDDDBDAD876
:102D2000D7D5D4D3D1D0CFCDCCCBCAC8C7C6C5C4D4
:102D3000C2C1C0BFBEBDBCBBBAB9B8B7B6B5B4B3EB
:102D4000B2B1B0AFAEADACABAAA9A8A8A7A6A5A4D6
:102D5000A3A3A2A1A09F9F9E9D9C9C9B9A9999989A
:102D60009797969595949393929191908F8F8E8E3D
:102D70008D8C8C8B8B8A89898888878786858584CA
:102D800084838382828181800000FF070000F87FB6
:102D90004FEA41034FEA5353A3F58063D3F11E0377
:102DA000C8BFD3F1210C0CDD4FF0004242EAC12232
:102DB00042EA505232FA03FC8CEAE17CACEBE1705F
:102DC0007047102BC4BF0020704703F5787CBCF11E
:102DD000FF3F04D06FF0004282EA2100704770B5D7
:102DE00000F0B0F84992248000207047F2E700001C
:102DF000DFF848C170B51CEA111E1EBF1CEA13158E
:102E00009EEA0C0F95EA0C0F00F06F8081EA030434
:102E100023EA4C134EEAD47E21EA4C1141F480118E
:102E200043F48013AE44A1FB024CA0FB0365AEF15A
:102E30007F7E361955EB0C05A1FB034C4CF10003CA
:102E4000A0FB021C16EB0C06654153F1000309427E
:102E500018BF46F0010613F4007F0BD14FEA03318F
:102E60004FEA0530340341EA155140EA16506FF03D
:102E700003020AE04FEAC3214FEAC520F40241EA07
:102E8000555140EA56506FF0020202EB2E4201EB20
:102E9000025585EACE710AD05FEA440C18BF24F0CF
:102EA000004450F1000041F1000120EAD47040F2EA
:102EB000FE7C624500D270BDA84214BF4FF0804432
:102EC0004FF04044002E08BF0024BEF1806FA8BF21
:102ED000A1F1C041BDE8704080F282804FF0000057
:102EE00001F1C04101F0004170479EEA0C0F0CEA6D
:102EF000131518BF95EA0C0F06D04FF0000081EAB9
:102F0000030E0EF0004170BD00F01CF88900013E78
:102F100000F007B800F009B84FEA430C5FEA5C5CC8
:102F200008D081EA030100F05BB84FEA410C5FEA88
:102F30005C5CF6D14FF00000014970470000FF07CC
:102F40000000F87F0EF1020E2EF0030E5EF8046B07
:102F5000364205D4012A43EB030515F5001F12D8AC
:102F6000012841EB010C1CF5001F0CD80ED14FEAD3
:102F7000D17C15F5001F0CEB4C0C0CF1020C08BFBA
:102F80004CEBD37C04E04FF0080C01E04FEAD37C1B
:102F90000CEB4C0526FA05F606F00706B6F1040C14
:102FA00006D20EEB860CBDE870404CF0010C604779
:102FB000DFE80CF0090B02024FF000414FF0000077
:102FC000A1F5002170BD19461046012851EB0104FE
:102FD00018BFD4F5001484BF002001F0004170BD7B
:102FE0000808A0F500114FEA3101704710B591EAC9
:102FF000030F48BF83F000433FF5D2AC841A71EB56
:10300000030C07D212198CF0004C43EB0C03001B8D
:1030100061EB0C01DFF8A4E14FEA1154A4EB135C5F
:103020001EEA430F18BF9EEA445F00F0B08023EA17
:103030006E03524221EA0451C3EB6E0338BF5B1E9C
:10304000DCF1200E25D322FA0CFE10EB0E0043FA21
:103050000CFE41EB0E01CCF1200E03FA0EFE10EB3C
:103060000E0051F10001CCF1200E29D412FA0EF21B
:1030700001EB0451BDE8104058BF7047401C1CBF15
:10308000B2F1004F704700280CBF491C20F001002E
:10309000704712EB020E43EB030218BF4FF0010E14
:1030A0004EEA4202ACF1200CDCF11E0E54D943FA78
:1030B0000CFE10EB0E0051F1FF31CCF11E0ED5D5F8
:1030C0000EF1010E12FA0EFE404141EB010101EB3F
:1030D000445C5FEA5C5C10D910EBDE7001EB0451DC
:1030E00038BFBEF1004FBDE8104018BF7047002840
:1030F0000CBF491C20F00100704730D24FEAD42C9D
:1031000011F5001124F400641BD0B1FA81F20B3ADE
:10311000A41AA41ED2F12003914030FA03F31943FC
:10312000904001EBCC71002C01EB0451BDE8104044
:10313000A8BF704701F1C0414FF0000001F000410D
:103140007047B0FA80F310FA03F100D110BDE41A11
:10315000173C4805C90AE4E701EB045110BD4910CA
:1031600001EB0451BDE810404FEA300002E04FF09F
:10317000000170474A0008BF0042F8D0B2F5001FB6
:1031800028BF704701F000414FF0000070479EEAF1
:10319000445F07D011EA5E0FBDE8104004BF002174
:1031A00000207047BDE8104070B5FFF7CBFE00BFB0
:1031B00040DFF63E83F00041104670470000E0FF1C
:1031C00043004FEAD30C4FEA3C0C43401FBF40077B
:1031D0000CF1605113F0FE4F70471CF0006F03D1EB
:1031E00000200CF0004170470CF0004343EA50709F
:1031F00010B540EACC0000F00EF800BF00000092CD
:103200004FEA0001FFF7ECBE4FF000414FF0000025
:10321000A1F5002170470EF1020E2EF0030E5EF8AC
:10322000044B244204D44FEA4102B2F17F4F11D83B
:103230004FEA4003B3F17F4F0CD80ED14FEAD07C58
:10324000B2F17F4F0CEB4C0C0CF1020C08BF4CEBB5
:10325000D17C04E04FF0080C01E04FEAD17C0CEB8C
:103260004C0324FA03F404F00704B4F1040C06D26E
:103270000EEB840CBDE810404CF0010C6047DFE819
:103280000CF0070802024FF00040A0F5800010BDCE
:103290000846420018BFD2F1807288BF00F000409B
:1032A00010BD4FF04070E1EE100A7047FF2141EA77
:1032B000D050C0057047FDF799B9000002400000EA
:1032C000000000A00000000005400000000000C851
:1032D000000000000C4000000000409C00000000C6
:1032E000194000000020BCBE000000003440000077
:1032F000BFC91B8E00000004B5400000504BCFD06A
:103300006607E2CF010000006C4100003E8251AA36
:10331000DFEEA73401000000D9420000DCB5A0E2D6
:103320003A301F97FFFFFFFFB4450000FD25A0C8FE
:10333000E9A3C14FFFFFFFFFFF3F00000000008037
:1033400000000000FF3F00000000008000000000BF
:103350008C3300080000002050000000C401000869
:10336000DC33000850000020A0060000E001000847
:103370001C00000043000000F8FFFFFF0C000000ED
:103380000E0000000F0000002E00000000000000F2
:10339000000000000000010203040102030406070C
:1033A000080900000000000000000000000000000C
:1033B000000000000000000000000000000000000D
:1033C00000000000000000000000000000000000FD
:0C33D00000000000000000000A000000E7
:040000050800018965
:00000001FF
